:1000000000800020D16100001D6200001D62000020
:1000100000000000000000000000000000000000E0
:100020000000000000000000000000001D62000051
:100030000000000000000000C53A0000CD3A0000BA
:100040001D6200001D6200001D6200001D620000B4
:100050001D6200001D6200001D6200001D620000A4
:100060001D620000995B0000A55B0000B15B000011
:10007000BD5B0000C95B0000D55B00001D62000095
:100080001D6200001D6200001D6200001D62000074
:100090001D6200001D6200001D6200001D62000064
:1000A0001D6200001D6200001D6200001D62000054
:1000B0001D6200001D6200001D62000000000000C3
:1000C00010B5064C2378002B07D1054B002B02D02E
:1000D000044800E000BF0123237010BD300200205F
:1000E0000000000048800000084B10B5002B03D032
:1000F0000749084800E000BF07480368002B00D10B
:1001000010BD064B002BFBD09847F9E7000000001C
:10011000340200204880000030020020000000006F
:1001200072B63248324902681143016031480121F8
:100130000160EFF3088080F30988022080F31488BF
:100140002D484168016001688A8810231A438A801B
:100150000B68243307CB0433F0CB83F30988143BBB
:100160001B68AE4662B63047EFF3108072B6704738
:10017000EFF3108062B6704780F3108870471F4815
:100180001F4901607047EFF3108C72B61D4A126868
:10019000002A04D0714603B4904703BC8E46EFF3A7
:1001A00009802438F0C043464C4655465E466746B3
:1001B000F8C02438104D10232E683060B7889F4354
:1001C000B7806868286087881F438780016810317E
:1001D000F8C99846A146AA46B346BC4681F30988A9
:1001E0002439F0C98CF310887047000020ED00E03E
:1001F0000000C0C0080900200009002004ED00E054
:1002000000000010900200200023C25C0133002A8D
:10021000FBD1581E70470000002243088B4274D364
:1002200003098B425FD3030A8B4244D3030B8B42F7
:1002300028D3030C8B420DD3FF22090212BA030C00
:100240008B4202D31212090265D0030B8B4219D3E1
:1002500000E0090AC30B8B4201D3CB03C01A524101
:10026000830B8B4201D38B03C01A5241430B8B4249
:1002700001D34B03C01A5241030B8B4201D30B0332
:10028000C01A5241C30A8B4201D3CB02C01A524159
:10029000830A8B4201D38B02C01A5241430A8B421C
:1002A00001D34B02C01A5241030A8B4201D30B0205
:1002B000C01A5241CDD2C3098B4201D3CB01C01A1F
:1002C000524183098B4201D38B01C01A5241430929
:1002D0008B4201D34B01C01A524103098B4201D317
:1002E0000B01C01A5241C3088B4201D3CB00C01A84
:1002F000524183088B4201D38B00C01A52414308FC
:100300008B4201D34B00C01A5241411A00D2014620
:10031000524110467047FFE701B5002000F0F0F8A9
:1003200002BDC0460029F7D076E7704703460B436D
:100330007FD4002243088B4274D303098B425FD3DE
:10034000030A8B4244D3030B8B4228D3030C8B420A
:100350000DD3FF22090212BA030C8B4202D31212F0
:10036000090265D0030B8B4219D300E0090AC30BC5
:100370008B4201D3CB03C01A5241830B8B4201D372
:100380008B03C01A5241430B8B4201D34B03C01A5B
:100390005241030B8B4201D30B03C01A5241C30AD3
:1003A0008B4201D3CB02C01A5241830A8B4201D344
:1003B0008B02C01A5241430A8B4201D34B02C01A2E
:1003C0005241030A8B4201D30B02C01A5241CDD2D3
:1003D000C3098B4201D3CB01C01A524183098B421E
:1003E00001D38B01C01A524143098B4201D34B0107
:1003F000C01A524103098B4201D30B01C01A52416A
:10040000C3088B4201D3CB00C01A524183088B42F0
:1004100001D38B00C01A524143088B4201D34B00D9
:10042000C01A5241411A00D201465241104670474B
:100430005DE0CA0F00D04942031000D34042534050
:1004400000229C4603098B422DD3030A8B4212D310
:10045000FC22890112BA030A8B420CD38901921142
:100460008B4208D3890192118B4204D389013AD07F
:10047000921100E08909C3098B4201D3CB01C01A54
:10048000524183098B4201D38B01C01A5241430967
:100490008B4201D34B01C01A524103098B4201D355
:1004A0000B01C01A5241C3088B4201D3CB00C01AC2
:1004B000524183088B4201D38B00C01A5241D9D2DA
:1004C00043088B4201D34B00C01A5241411A00D25B
:1004D0000146634652415B10104601D34042002B57
:1004E00000D54942704763465B1000D3404201B5D6
:1004F000002000F005F802BD0029F8D016E770478B
:100500007047C0468446081C6146FFE71FB500F0EF
:10051000F5F9002801D40021C8421FBD10B500F034
:1005200081F94042013010BD10B500F0E7F9002814
:1005300001DB002010BD012010BDC04610B500F049
:10054000DDF9002801DD002010BD012010BDC046EE
:1005500010B500F08FF9002801DC002010BD01204B
:1005600010BDC04610B500F085F9002801DA002062
:1005700010BD012010BDC0461C2101231B04984260
:1005800001D3000C10391B0A984201D3000A083924
:100590001B09984201D30009043902A2105C4018DB
:1005A0007047C0460403020201010101000000007F
:1005B0000000000070B500220C4B04000D0001F09B
:1005C0005DF9002804D12000290001F099F870BDE0
:1005D000064B00222000290000F03EFD01F090F8BB
:1005E00080231B069C466044F1E7C0460000E041C2
:1005F000F0B5564644465F464D46F0B444024600C8
:10060000C70F83B08846650A360EBA463DD0FF2E26
:1006100022D00023EC00802599469B46ED0425431B
:100620007F3E43465C025800DB0F640A000E98468A
:1006300036D0FF2830D080230021E400DB041C43A7
:100640007F38301A0190484642460843724E800077
:1006500030587A4013008746002D44D1082399462C
:10066000063B9B46DDE70122FF2000241A4064027E
:10067000C305640AD2071C431443200003B03CBCEA
:1006800090469946A246AB46F0BD002D20D10423EA
:100690009946033B9B46C4E7002C17D1022102E098
:1006A000002C0AD10121321A01924A4643460A43DC
:1006B0005A48920082587B4097462000FFF75CFF23
:1006C000431F76309C4040420021BAE70321B8E73F
:1006D0002800FFF751FF431F9D400023763046421C
:1006E00099469B469DE70C239946093B9B4698E714
:1006F00080240022E403FF20B9E70024C2468B4691
:100700005A465346022AAED0032A7DD0012A31D15F
:10071000012200201A400024A9E70122101A1B28F8
:1007200056DD1A4000200024A1E78023DB031D4290
:100730004BD18023DB032B435C02640A3A00FF2089
:1007400095E76D016001854230D2019A0024013A9B
:1007500001921B220127290064006D00002901DBA2
:10076000A84201D82D1A3C43013A002AF3D16A1E4F
:1007700095412C4301987F300028CEDD620704D0DC
:100780000F222240042A00D00434220103D5244A37
:10079000019814408030FE2800DD64E70122A401A6
:1007A000640AC0B21A4062E72C00A9E72D1A1A2287
:1007B0000124CFE76B02BCD500248023DB031C435C
:1007C0006402640A4246FF2051E71C42B3D1F4E7B9
:1007D00021002022C140101A8440621E94410C4323
:1007E000620704D00F222240042A00D004346201A0
:1007F00004D5012201201A40002438E70122A40177
:10080000640A1A40002032E78023DB031C436402A1
:10081000640A5246FF202AE76C800000AC8000008A
:10082000FFFFFFF7430270B542004C005D0AC30FA3
:100830004802120E460A240EC90FFF2A0FD0FF2CC1
:1008400011D00120A24200D070BDB542FCD18B4234
:100850000DD0002AF8D12800431E9841F4E701206A
:10086000002DF1D1EBE70120002EEDD1E9E70020CA
:10087000EAE7C0464302F0B542005D0AC30F4802F2
:10088000440A4800120E000EC90FFF2A1FD0FF288D
:1008900022D0002A09D16E426E4100280FD1002CCF
:1008A0000DD10020002D09D005E0002801D1002C39
:1008B00001D08B4213D0584201231843F0BD002EC3
:1008C000F7D048424141012049420843F6E7002D54
:1008D000DDD002204042F1E7002CDAD0F9E7824275
:1008E000E9DC04DBA542E6D80020A542E6D2584266
:1008F000434101205B421843E0E7C0464302F0B5A4
:1009000042004C005E0AC30F4802120E450A240E34
:10091000C90FFF2A17D0FF2C19D0002A0BD1704223
:100920007041002C17D0002807D0484241410120D7
:1009300049420843F0BD002C13D08B4214D05842DA
:1009400001231843F6E70220002EF3D1E3E702204B
:10095000002DEFD1E1E7002DE5D10020002EE9D0F8
:10096000EDE7002DE9D1EAE7A242E8DC04DBAE4284
:10097000E5D80020AE42DDD25842434101205B421F
:100980001843D7E770B5041E28D0FFF7F5FD9E2366
:100990001B1A962B0ADC9622D21A94406202520A43
:1009A000D8B25202520AC005104370BD992B18DC10
:1009B0009922D21A9440114A2240610704D00F2193
:1009C0000C40042C00D00432510103D50B4B1A40CB
:1009D0009F231B1A9201520AD8B2E2E7002000229C
:1009E000DFE705222500121AB921D5402200C91AD5
:1009F0008A40541EA2412C001443DCE7FFFFFFFB9A
:100A0000F8B556465F464D464446F0B40F00FD0F1C
:100A1000AA4609037C002E005F00450F490A7F0D9E
:100A20002943C5001803BC46400A570F640DDB0F6D
:100A30003843D2009A4500D1AAE06646A61B002E94
:100A400000DCFFE06346002B39D10300134300D0E4
:100A5000D9E06B0709D00F232B40042B05D02B1DA9
:100A6000AB42AD416D4249191D000B0200D482E03A
:100A7000CA4B01349C4200D1FEE00A005646C84BE6
:100A8000ED081A405007640552020543120B640D2D
:100A9000002112030B0D1B056405120B1A4363089A
:100AA000C04CF60714401C4364006408344328001B
:100AB00021003CBC90469946A246AB46F8BDB74BD8
:100AC0009C42C6D080231B041843382E00DDEBE087
:100AD0001F2E00DD1EE120239B1B9C460300674662
:100AE000BB40984613004746F3403B436746BA4035
:100AF000571EBA4113430200F240EB1A9D42B64121
:100B00001D008A1A7642911B0B0231D54A02560A01
:100B1000002E00D1B4E03000FFF72EFD0300083BAB
:100B20001F2B00DDB5E020222900D21AD1409E40C3
:100B30000A009D4032439C4200DDB1E01C1B631C57
:100B40001F2B00DDD5E0202114002800C91A8C409D
:100B5000D8408D400443DA40681E8541110025438A
:100B6000002476E74146314300D134E23100454666
:100B70006B0700D06FE756464807ED08C9080543E4
:100B8000864B9C4235D00A036405120B640D7FE747
:100B90006346E31A9B46002B00DC8BE06746002F80
:100BA0003CD07E4FBC4200D153E780273F043843FE
:100BB0005B46382B00DCF7E00243501E82410020E8
:100BC000D2B253194218AB4289411D0049428918DB
:100BD0000B02CDD5714B01349C4200D13DE1012087
:100BE0006F4A6B080A4028401843D507054351084F
:100BF0002FE72B000B4300D1CBE180231B030B43DA
:100C00001A03120B44E7013E002E6DD1AE1AB54215
:100C10009B41091A5B42C91A350075E70700174363
:100C200000D116E701235B429C46E3445B46002B60
:100C300000D0E0E0AA18AA429B4109185B4259186B
:100C40001500C5E7002E75D1661C7605760D012EC0
:100C500000DCF3E0AE1AB0464545BF410E1A7F42B4
:100C6000F61B370200D48FE0551BAA42B641411A49
:100C700076428E1B9A464BE756460022002507E730
:100C80002800FFF779FC20300300083B1F2B00DC15
:100C900049E72A002838824000259C4200DC4DE7C5
:100CA0003F49E41A1140D4E60243501E8241D3B2B8
:100CB000002222E7002B00D0F3E0631C9C465B057A
:100CC0005B0D012B00DC9FE0344B9C4500D1C3E061
:100CD000AA180918AA42804140424118CD0752087B
:100CE000154349086446B4E62C4B9C4200D0ECE620
:100CF000AFE611001F3CE1400C00202B00D17FE04B
:100D00004021CB1A9A4015436A1E95410021254384
:100D100000242DE733000700203BDF403B00202E5E
:100D200070D04027BE1BB0400243501E8241134387
:100D30000022E2E6002C4FD0184CA44500D1ABE0D5
:100D40008024240476422143382E00DDDFE01F2E6C
:100D500000DD43E12027BC1BA1460C004F46BC40F0
:100D6000A0462C004746F4403C434F46BD406F1E12
:100D7000BD41F1402C43151BAA429241411A5242F7
:100D8000891A64469A46BFE641464546314300D03B
:100D9000BEE6002600240025F2E6C046FF0700005C
:100DA000FFFF7FFFFFFF0F801F2B59DC2027FF1A5B
:100DB000BC46070063469F405B46B9461700DF40CC
:100DC000B8464F4643461F4363469A40531E9A41D6
:100DD0005B463A43D840F4E60C002C435CD0F64323
:100DE000002E55D1551BAA42A441411A6442091B49
:100DF0009A46644688E6964FBC4200D0D8E628E67C
:100E0000002280E700208FE70B002B43002C00D04E
:100E1000C2E0002B00D101E10300134300D118E62A
:100E2000AB18AB42B6410918764271180A0200D4D9
:100E300009E1884A1D00114064460AE6002C5BD196
:100E40000E002E4300D08AE00100114300D1C2E021
:100E5000010015009A46FCE56446002100258FE656
:100E600020235B429C46DC4463460700DF405B4630
:100E7000BC46202B00D1ACE040235F46DB1B9840F2
:100E80000243501E8241634613431A00002098E635
:100E90006F4CA44500D057E70100150064469A4600
:100EA000D7E5002C39D10C002C436ED0DB43002B4E
:100EB0001AD0674CA44568D0382B00DDA4E01F2B66
:100EC00000DDAEE020240F00E41AA740B9462F0051
:100ED000DF40B846A3464F46444627435C46A540FC
:100EE0006C1EA541D9403D43AD1895429B41091860
:100EF0005B42591864466BE60C002C4315D1010087
:100F000011437BD0010015009A46514CA1E50D43D9
:100F1000691E8D410021ECB22DE74D4CA44534D023
:100F2000802424045B422143C6E7040014434ED0CE
:100F3000ED084C072C438025C9082D03294208D011
:100F4000C6082E4205D1D208410711430C009A462B
:100F50003100620FC900E50011433D4C79E5060000
:100F6000164300D175E5AE1AB0464545BF410E1A8D
:100F70007F42F61B370200D4F4E5551BAA42B64166
:100F8000411A7642891B9A4663E5010015006446C2
:100F90005FE5002200257BE5002B3BD003001343D7
:100FA00015D0ED084B072B438025C9082D03294296
:100FB00007D0C4082C4204D141070B002100D208FD
:100FC0001343C9005A0F1143DD00214C41E5204C69
:100FD0003FE5002054E700260025D1E534000F004E
:100FE000203CE7403C00202E2BD04027BE1BB140C8
:100FF0000D43691E8D4100212C43BCE68021002653
:101000000903134C0025BBE50D43691E8D410021EA
:10101000EDB269E7010015000D4C1AE5010015005D
:1010200017E51C000F00203CE7403C00202B0CD0B3
:101030004027FB1A99400D43691E8D41002125432D
:1010400052E70021D4E71D0092E50021F3E7C046F6
:10105000FF070000FFFF7FFFF0B557464E464546AD
:10106000E0B40E001100F20F9246C500420F1803C3
:1010700037037400400A4E0F7F0A3043CF4E1743A8
:101080005A00640D520DDB0FC900B24200D1E5E0F9
:1010900001267340A61AB446534500D1AFE0002E96
:1010A00000DC0DE1002A3AD103000B4300D0E4E05C
:1010B0006B0709D00F232B40042B05D02B1DAB420F
:1010C000AD416D427F191D003B0200D488E0BB4B4F
:1010D00001349C4200D110E13A00B94B51461A400C
:1010E00001235007ED08520264050543120B640DFD
:1010F0000B400021280012030D0D120B64052D0575
:1011000015436208AF4CDB072C40144364006408AD
:101110001C4321001CBC90469946A246F0BDA74B3B
:101120009C42C5D080231B0418436346382B00DD46
:10113000FDE01F2B00DD30E1624620239B1A0200F8
:101140009A40664690460A009940F24046464B1E39
:1011500099413243114363460200DA40691A8D42D5
:101160009B410D00BA1A5B42D71A3B0235D57A0271
:10117000530A98464346002B00D1C4E04046FFF78F
:10118000FBF90300083B1F2B00DDC5E020222900EE
:10119000D21A4746D1409F400A009D403A439C42A4
:1011A00000DDC0E01C1B631C1F2B00DDE4E02021E0
:1011B00014002800C91AD8408C408D400443DA40FE
:1011C000681E854117002543002471E742466346A7
:1011D0001A4300D14CE2674645466B0700D069E7E9
:1011E000012351467807ED08FA080B40054373497F
:1011F0008C4238D012036405120B640D79E7002E7F
:1012000000DC9AE0002A47D06C4A944200D14FE7B4
:101210008022120410436246382A00DC08E10143B0
:10122000481E81410022C9B24919D219A942BF41C1
:101230000D007F42BF183A0200D442E15F4A0134F8
:10124000944200D14EE101205D4A69083A402840AD
:101250000843D507054357089A4629E706000E4379
:1012600000D017E714E72900114300D1F9E18021EC
:1012700009030A431203120B3BE701235B42984622
:10128000C4446346002B72D1691A8D429B413F1AB8
:101290005B42FF1A0D0068E702000A4300D107E72E
:1012A000012252429046C4446246002A00D0E6E041
:1012B0006918A942B6413F187642F7190D00BAE7FE
:1012C000002E00D080E0621C5205520D012A00DC85
:1012D000F9E06A1A91464D45B6413A1A7642921B98
:1012E0009046120200D499E04D1BA9428941C71BC8
:1012F00049427A1A90469A463CE752460123002515
:1013000013400022F5E62800FFF736F920300300ED
:10131000083B1F2B00DC39E72A00283882400025D3
:101320009C4200DC3EE7264FE41A1740C0E601432A
:10133000481E81410022C9B210E7002E00D0F1E022
:10134000621C94465205520D012A00DCA0E01B4AA3
:10135000944500D1C5E06918A94292413F18524214
:10136000D2194908D5070D4357086446A0E6134B28
:101370009C4200D0D9E69BE611001F3CE1400C00E6
:10138000202B00D180E04021CB1A9A4015436A1EE1
:1013900095410027254300241FE763460200203BB8
:1013A000DA406346202B71D0402366469B1B984051
:1013B0000143481E814111430022CFE6FF07000090
:1013C000FFFF7FFFFFFF0F80002C48D0CA4CA242D6
:1013D00000D1A2E07442A1468024240427434C4655
:1013E000382C00DDDBE01F2C00DD44E14E462024DC
:1013F000A41B3E00A640A246B0464C462E00E64046
:10140000B4464646644626435446A5406C1EA54154
:1014100034002C434D46EF400D1B28E04A4643461E
:101420004D461A4300D0A5E6002300240025DEE641
:101430001F2A5ADC66462022921B060096409146DF
:10144000B04662460E00D640424616434A46914098
:101450004A1E9141020060463143C240E4E63C002E
:101460002C435AD0F443A146002C52D14D1BA94223
:101470008941C71B49427F1A14009A4675E69E4A65
:10148000944200D0C7E613E600227FE700208FE7F2
:10149000002C00D0C8E03B002B4300D10FE103003B
:1014A0000B4300D104E66918A9429B413F185B42F7
:1014B000DF193B0200D41AE1904B0D001F40644637
:1014C000F6E59A4689E63A002A43002C5CD1002AC8
:1014D00075D102000A4300D1CAE007000D009A4608
:1014E000E6E564460022002581E662460600203AD1
:1014F000D6406246B046202A00D1B7E04022664678
:10150000921B904001434246481E814111430022F4
:101510008AE6794CA24200D061E707000D00140072
:101520009A46C5E5002C41D13C002C4378D0F443C9
:10153000A146002C20D0704CA24271D04C46382CD1
:1015400000DDB2E01F2C00DDBCE02026341BA246EB
:101550003C005646B4404E46A0462C00F440A446FB
:10156000444666463443A4465446A54064466E1E2F
:10157000B54125434C46E7406D188D4289413F18DF
:101580004942CF19140056E6002A2FD102000A431F
:1015900000D184E007000D009A46574C88E53D4392
:1015A0006F1EBD41ECB200270D1B60E7524CA242FA
:1015B00036D0744280263604A1463743BEE7020087
:1015C0000A4300D174E56A1A90464545B6413A1A75
:1015D0007642921B9446120200D4F7E54D1BA942B5
:1015E0008941C71B49427F1A9A4661E502000A43B6
:1015F0003AD0ED087C072C438025FA082D032A42B7
:1016000008D0C7082F4205D145072C003A009A465A
:10161000C9080C43670FD200E5001743364C47E575
:1016200007000D00140043E53A002A4343D00200AE
:101630000A4319D0ED087C072C438025FA082D03B6
:101640002A4207D0C6082E4204D147073C00320088
:10165000C9080C43D700620FE50017439A46264C91
:1016600026E50022002544E5234C21E5002049E73A
:1016700000230025BBE54C463E00203CE6404C469E
:10168000B446202C31D040244E46A61BB7403D43E3
:101690006C1EA54164462C4300270D1BE7E6802203
:1016A00000231203144C0025A1E53D436F1EBD41EC
:1016B0000027EDB260E707000D000F4CF8E40700CB
:1016C0000D00F5E44E463C00203EF440A0464C465A
:1016D000202C0ED040244E46A41BA7403D436F1E35
:1016E000BD4144460027254346E70027CFE70D00CC
:1016F00073E50027F2E7C046FF070000FFFF7FFF0A
:101700000B0330B5134D1A0B4B005B0DC90F0024B2
:10171000AB4211DD104CA34210DC80246403224351
:101720000E4CE41A1F2C0CDD0D48C31ADA401300CE
:101730005C42002900D11C00200030BD094BCC18B0
:10174000FAE7E040084CA44663449A401300034380
:10175000EEE7C046FE0300001D0400003304000055
:1017600013040000FFFFFF7FEDFBFFFF4200120E9E
:10177000511C4302C9B270B55D0AC40F012915DDC1
:10178000E02189008C466D071B0B62440021280074
:101790000D0D2D052B431C4D52052B4052081343B4
:1017A0005B00E4075B082343190070BD002A15D1D4
:1017B000002D1FD02800FEF7DFFE0A281DDC0B23BA
:1017C0002A001B1ADA4013000200153295400F4A16
:1017D0001B03121A52051B0B520DD7E7002D06D022
:1017E00080221B0B120313436D07094ACEE7084AF8
:1017F0000023CBE700220023C8E703000B3B9D40FA
:101800002B000025E3E7C046FFFF0F80890300009F
:10181000FF0700008446101C62468C46191C634674
:1018200000E0C0461FB500F0D7F8002801D4002121
:10183000C8421FBD10B500F02BF84042013010BD6A
:1018400010B500F0C9F8002801DB002010BD012010
:1018500010BDC04610B500F0BFF8002801DD002023
:1018600010BD012010BDC04610B500F051F8002891
:1018700001DC002010BD012010BDC04610B500F0F5
:1018800047F8002801DA002010BD012010BDC04635
:10189000F0B55F4656464D464446F0B41F035C0023
:1018A000DB0F9A46194B0E034D00C90F8046360BCD
:1018B0006D0D8B4691463F0B640D9D4219D0134B25
:1018C0009C421BD00123A54206D018003CBC904688
:1018D0009946A246AB46F0BDBE42F6D1C845F4D10A
:1018E000D34510D0002DF0D1304303005A1E934150
:1018F000EBE7310001230143E7D1E0E73A4301235D
:10190000002AE2D1DEE70023DFE7C046FF07000040
:10191000F0B55F46444656464D46F0B41F033C0BB7
:101920002C4F0E034D00A3465C008446360B6D0D14
:10193000C90F9046640DDB0FBD422BD0254FBC4232
:101940002ED0002D0ED130430700814678427841D9
:10195000002C17D15F463A4314D14B460020002B90
:101960000AD006E0002C02D15846024301D0994229
:101970001AD00123484218433CBC90469946A246DF
:10198000AB46F0BD0028F2D05842584101224042F7
:101990001043F1E737000743D0D002204042EBE785
:1019A0005F461743CDD0F8E7A542E2DC05DB5E4594
:1019B000DFD808D000205E45DED2484248410123EE
:1019C00040421843D8E7C445D3D80020C445F4D3D7
:1019D000D2E7C046FF070000F0B55F464D464446DB
:1019E0005646F0B41C03240BA4462F4C0F034D00A5
:1019F0005E00C90F80463F0B6D0D8B469146760DFC
:101A0000DB0FA54220D0284CA64222D0002D12D1B7
:101A1000384344424441002E20D0002C0DD05C427B
:101A2000634101245B421C4320003CBC9046994624
:101A3000A246AB46F0BD002E17D05B4519D05B46E1
:101A40005C4201231C43EFE7390002240143EBD140
:101A5000D9E7614602241143E6D1D7E761460A433C
:101A6000DBD100240028DFD0E9E761460A43E4D156
:101A7000E5E7B54203DD01225C421443D4E7B542F9
:101A8000CDDB6745DBD809D000246745CCD2594669
:101A90004C426141012449420C43C5E7C845CED8B8
:101AA0000024C845F3D3BFE7FF0700001022014B15
:101AB0001A607047F808002010B501F0B9FF041E45
:101AC00006D0054804F0BCFB044804F035FC01E0F6
:101AD000FEF726FB200010BDEC800000F480000023
:101AE00010B5FFF7E3FF224B224AD318224A1360B6
:101AF00001F076FD041E08D0204804F0A1FB21006F
:101B00001F4804F09DFB200031E000F0DFFB041EC5
:101B100007D01A4804F094FB1A4804F00DFC20008A
:101B200025E000F04DFC01F0F5FA00281FD100F08F
:101B300079FF00281BD101F0E7F8041E07D00F48F9
:101B400004F07EFB104804F0F7FB20000FE000F0EB
:101B5000CFF8041E07D0094804F072FB0B4804F0CC
:101B6000EBFB200003E000F033FF00F06DFD10BD43
:101B700000040000500C0020C4080020EC8000008D
:101B80000881000024810000388100004C810000A1
:101B900010B50B4B18688021490001F037FD094B47
:101BA000186000280AD0002206E0D3000549096821
:101BB000CB185B601B6001321F2AF6D910BDC046EE
:101BC000C4080020C808002010B5CB000A4A1268DB
:101BD000D3185A68934206D180221206CA40074998
:101BE0000C6822430A601B685A68426003605A68A6
:101BF0001060586010BDC046C80800204C0200208C
:101C0000436802681A60036842685A6000234360B0
:101C100003602838C288D30006490968CB18596880
:101C20008B4206D180231B06D340034A1168994397
:101C300011607047C80800204C02002010B5074B07
:101C40001868002807D0FEF797FCC000044B1B68FB
:101C50001818406800E0002010BDC0464C0200206B
:101C6000C8080020C000054B1A68121853680020ED
:101C700001E001305B689342FBD17047C808002047
:101C800000B585B0082301930B4B186801235B4214
:101C900001AA02A901F0DCF90028F5D1019B082B6B
:101CA000F2D1029B002BEFD000F0ACF90398029B1D
:101CB000984700F0A7F9E7E7D408002000B587B0FF
:101CC00018220021684604F0B3FA064B0093B423AF
:101CD0009B000393044B04936946044800F072FC94
:101CE00007B000BD811C000060810000E0080020FA
:101CF00010B582B0402200211D4804F099FA00225C
:101D00001C4B1A601C4B1868E021490001F07EFC56
:101D1000041E26D0E0225200002104F089FA174B5D
:101D20001C60174B1C600023238122001C320133EE
:101D300005E01381226001339BB214001C320F2B8B
:101D4000F7D90823009300230E4A1021002001F048
:101D500011F8002807D1FFF7B1FF002805D00A4885
:101D600004E00A4802E00A4800E0002002B010BD8A
:101D700050020020D8080020C4080020D00800200D
:101D8000CC080020D40800200C0300020703000246
:101D90000B030002F0B55F4656464D46E0B482B0F4
:101DA00005000369C36003890F221A4017009200DF
:101DB000644BD258530F5B07C021C9058B4277D1C2
:101DC00080231B061A43BB005E495A501202130AB5
:101DD0009946002410239B469A46113B0193009399
:101DE00032E0A300574A9B581E02360A2AD0BC4252
:101DF00028D09B0F9B07C0221206934222D1B145E7
:101E00000FD849463000FEF78DFA002909D149461E
:101E10003000FEF701FA009B834213D9A2460090DE
:101E200010E0B1450ED931004846FEF77BFA002993
:101E300008D131004846FEF7EFF9019B834201D9F2
:101E4000A34601900134A4B20F2CCAD95346102BDB
:101E50001FD03D4B1B6800200EE0DA6894466044BA
:101E60001C895246D100891A8A00384909688A18A3
:101E70001289944202D01B68002BEED1002B3DD07A
:101E80001B69181A2C692100FEF74CFA641AEC60E1
:101E900034E05B46102B31D00023EB602B4B1968EC
:101EA0005B46DB005A469B1A9A0089180B6833E0A0
:101EB0008021C9058B4221D180231B061A43BB0018
:101EC00020495A50204B196810E00B692A69934247
:101ED0000BD10B890F2213409B001A4A9B589B0F72
:101EE0009B07C0221206934202D009680029ECD158
:101EF000002903D00023EB600B680DE0124B1B6838
:101F0000002107E0D868EA68904205D8121AEA6012
:101F100019001B68002BF5D12B60002B03D0DA6869
:101F2000E868121ADA60002902D1074B1D6000E050
:101F30000D6002232B7102B01CBC91469A46A34649
:101F4000F0BDC04650020020D8080020D008002074
:101F500010B582B01E4B1C6833E01D4B22681A601E
:101F6000A3690093636901931A4B18680023082240
:101F7000694601F0A1F86379002B16D1164B1A6857
:101F800022601C600022227123890F210B409B00DC
:101F900012495A502389124A934202D8103323819E
:101FA0000DE00F221340238109E0012B03D1200013
:101FB000FFF7F0FE03E0022B01D1013B2371044B3C
:101FC0001C68002C02D0E368002BC6D002B010BD04
:101FD000D8080020D4080020CC080020500200209F
:101FE000DFFF000010B5064B1A68002A06D0D36840
:101FF000013BD360002B01D1FFF7AAFF002010BDE9
:10200000D8080020014B186859687047780A0020EA
:10201000FEE7C04670B52B4B1B68DB681A682A4B7D
:102020009A4209D0294804F00BF9264B1B681A691B
:10203000596A274804F004F9224B5B681A68D9688A
:102040008A4203D99B68CB189A4213D91F4D2800A6
:1020500004F0F6F81B4C63681A69596A1D4804F0CD
:10206000EFF8280004F0ECF863681968DA681A4899
:1020700004F0E6F8194C2078124B5A68118A430094
:10208000E31859804001103000190630516A2022AF
:1020900004F0C5F823785A01A218353200211170D6
:1020A0000133DBB223700A2B06D10C4B00221A70CD
:1020B0005A7880390A435A70094B1B68002B00D0AC
:1020C000984770BD00090020CCCCCCCCEC8000003F
:1020D0006C81000094810000B88100001409002088
:1020E0009402002070B504000D0083885B070FD5B3
:1020F000060028363000FFF783FDA38804229343AF
:10210000E5801343A38029003000FFF75DFD00E068
:10211000E18070BD70B51F230B401D004909002BE5
:1021200000D10139836BDB0EDB06194381631E4C42
:10213000A288AB181F252B4049014909DA06114333
:1021400081632568DB00ED186C68A54209D10200A7
:1021500030322B6859684163036359680A605A60DA
:1021600021E0303CA66B73015909826B53015B0976
:1021700099420AD8D20ED2065B1A13438363636B6B
:102180001C00303C9D42EDD104E0F60EF606CB1A61
:102190003343A36302003032236B59684163036306
:1021A00059680A605A6070BDEC08002030B5836B36
:1021B000DA0E0E490968D2008A18416B8A420BD0A8
:1021C00030390C008A6BD50EED06520151095A01C7
:1021D00052098B182B43A363436B026B1A60036B8A
:1021E000426B5A6000234363036330BDEC08002058
:1021F00070B5334882880132D317D90E52181F2385
:102200001A40531A9BB283800468DB00E4186068AC
:10221000844254D03038002549E08388826B5101D4
:1022200002D0013A826346E0426B016B1160026B9F
:10223000416B51600022426302631A070FD5828806
:1022400008218A438280C26A816A1160826AC16AF7
:1022500051600022C26282628261C2611AE05A0544
:1022600004D58188174A0A40828013E09A040DD56C
:10227000C26A816A1160826AC16A51600022C262C8
:1022800082628188104A0A40828003E0828820218D
:102290008A4382809B0708D4828804231343838067
:1022A000C1882830FFF790FC0125606830380300B2
:1022B00030339C42B1D1002D01D001F049FB70BDFB
:1022C000EC080020FFFBFFFFFFDFFFFF70B5334B83
:1022D0001C68013454235C43314B1868210001F021
:1022E00095F9304B1860002853D02200002103F0EC
:1022F0009FFF2D4B5B601B602C4B5B601B602C4B6E
:102300005B601B60002412E054236343254A12687B
:10231000D31801229A801C6119002831234A1268BF
:102320005068D8629A6253681960516001340F2C6A
:10233000EAD9204D08220021280003F079FF174B2D
:102340001A6854235343174A1268D3182B601C6130
:1023500011229A800F32DA80FFF71AFC104B1868AE
:102360008021490001F052F9041E14D0802252004D
:10237000002103F05DFF104B1C6000229A800023B7
:1023800003E064602460013308341F2BF9D9002076
:1023900002E00A4800E0094870BDC046F808002085
:1023A000C4080020F40800206C0A00200C0900205A
:1023B000E408002000090020EC08002000020003CF
:1023C00010B5084CAB2252000021200003F030FF72
:1023D0000A236370044A054B1A600022044B1A60FA
:1023E00010BDC046140900201520000090020020F6
:1023F00094020020F0B557464E464546E0B482B000
:1024000005000C00002800D1A7E0002900D1A6E0BB
:102410000B69002B00D1A4E00B68002B00D1A2E0D7
:102420008A881F2A00D9A0E003D1564A934200D0DF
:102430009DE0E268544B5B42544E554F9B1B5549FF
:102440008C466344DB1B9A4200D992E0002A02D1F9
:10245000B4239B00E3600821E06801F059FAE060D2
:102460003023FF33984200D885E0FDF77DFE0190D0
:102470001BE05A68196811601A6859685160002297
:1024800091465A601A60283A92469A44424A5168E4
:1024900059601A6051680B605360F0195346D9684F
:1024A00001F0CCF853464A46DA603C4A53689342FE
:1024B000DFD1394B5A6891469A4248D05368126826
:1024C0001A604B461B684A4652685A6000234A46C7
:1024D000536013600198FDF74FFE4B46283B1B6984
:1024E0009846F0190822E16801F0A4F8071E0DD102
:1024F000FDF73AFE0190284B4A4659685160136037
:102500005A68494611605960254C21E00200E16893
:10251000404601F03BFA4B46283B1860A2681A621D
:10252000DF60E2689A6000229A61DA610221998094
:10253000A188D9802168596101214942D9639A64EF
:10254000216959621A6543462B60002014E0154C3E
:102550000198FDF711FE20000EE013480CE013482F
:102560000AE0134808E0134806E0134804E0124864
:1025700002E0124800E0124802B01CBC90469946A6
:10258000A246F0BD1120000000040000500C002005
:1025900000040000008000200C090020E408002056
:1025A0000002000311020002070200020102000201
:1025B00005020002040200020302000220020002DF
:1025C0000602000270B50500FFF714FF002831D1A4
:1025D000194B18682C6854235C430419FDF7C4FD9B
:1025E0000500A3880222934304221343A380E188B9
:1025F00020002830FFF7E8FAFFF720FB28380F4BC0
:1026000058600F4B1B68002B10D00E4B1B88002B03
:102610000CD10A4A1268904208D0002B06D128003B
:10262000FDF7AAFD01F090F9002003E02800FDF776
:10263000A3FD002070BDC046F40800200009002062
:1026400008090020FC08002000B587B018220021EE
:10265000684603F0EDFD084B0093A023DB000393D5
:10266000064B04931F236A46938069460448FFF78C
:10267000A9FF07B000BDC04611200000C8830000BC
:10268000DC080020F8B504004B4B1B68834200D1E6
:102690008BE04A4B1B68984200D188E0484B1B688E
:1026A000984200D385E0FDF75FFD0700454B1B68AE
:1026B000542565435D19AE88F30703D5FDF75CFD2E
:1026C000414877E0F30606D5404B1B88002B02D02B
:1026D00000223E4B1A80730708D528002830FFF7E8
:1026E0008FFAAB8804229343AB800BE0384B1E4239
:1026F00008D0EB6AAA6A1A60AB6AEA6A5A600023D9
:10270000EB62AB626023334202D02800FFF74EFD3C
:10271000AB880222934301221343AB8001235B4227
:10272000EB630023AB64FFF789FA2838294B586024
:10273000AB88DB0622D52A002832274B1B68596854
:10274000E962AB6259680A605A601D4B1A685423EB
:1027500053431C4A1268D3181E4A13601C61AA888E
:102760009A80EA68DA606A6A5A620123AB803800AC
:10277000FDF702FD01F0E8F800201BE00123AB802B
:102780002A002832154B5968E962AB620A605A6028
:10279000134B1448C018E96800F050FF0023EB60A9
:1027A0003800FDF7E9FC002004E00F4802E00F4884
:1027B00000E00F48F8BDC046DC080020E00800201B
:1027C000F8080020F40800200A020002FC0800209B
:1027D0000820000000090020E40800200C09002067
:1027E00000040000500C002014020002210200022C
:1027F0000702000210B5074B1A68542358431418F7
:10280000206A636998470022034B1A802069FFF70A
:1028100039FF10BDF4080020FC080020F0B5474641
:1028200080B480460F001600104B1C682500283528
:102830002800FFF7E5F9A388042293431F43A780EC
:1028400043461B685A68E262A3625A6815605D607D
:10285000731C07D0A28840231343A38031002000BB
:10286000FFF758FC04BC9046F0BDC04600090020AC
:1028700010B50400C36A826A1A60836AC26A5A6029
:102880000023C362836283888B4383805B0605D504
:10289000FFF78CFCA38840229343A380A3889A0768
:1028A00007D404221343A380E18820002830FFF7D7
:1028B0008BF910BD10B51C4B1B681C4A12681969B6
:1028C00091422CD29B885B072BD5FDF74DFC040071
:1028D000154B1B68D888FFF7C5F901281AD9124A89
:1028E0001368D96A986A0860996AD86A48600021B2
:1028F000D962996210688288042313438380C18857
:102900002830FFF761F92000FDF736FC01F020F8D0
:10291000002007E02000FDF72FFC054802E00548F5
:1029200000E0002010BDC04600090020F80800208B
:102930001002000207020002F8B5050001F0BEF81F
:10294000041E24D1144B1B88002B22D1002D03D14F
:10295000FFF7B0FF04001DE0FDF706FC06000F4F77
:1029600038682830FFF74CF938688388042293438D
:1029700083802900FFF7CEFB3A68918820230B4320
:1029800093803000FDF7F8FB00F0E2FF02E0044C1A
:1029900000E0044C2000F8BDFC08002000090020E5
:1029A0000D0200030E02000270B508490122002347
:1029B0000C684D6812196B410A604B6000F010F80A
:1029C000FFF716FCFFF70EFB70BDC046780A00202B
:1029D000024B00221A600A32DA807047900A002007
:1029E00010B50D4B1A680D4B1B689A4207D00A4A66
:1029F00013600B4B1988D388CB18013B9380064B8F
:102A00009A88074B1B889A4204D10022024B1A6015
:102A1000FFF750FF10BDC046900A002000090020BB
:102A2000780A002010B5144B5B601B60134B1868CC
:102A3000B421490000F0EAFD114B1860002819D0BC
:102A4000002213E00E4B186851008918CB00C31800
:102A50005A600021197018000830074909684C684D
:102A6000DC6099604B681860486001320E2AE9D931
:102A7000002000E0034810BD9C0A0020C40800208C
:102A8000980A0020001D000230B583B0041E27D034
:102A9000FDF76AFB144A536893420BD1FDF76CFBB8
:102AA000124C0023009322001149124800F03CFF11
:102AB000200016E05A68196811601A685968516058
:102AC00000211A00083A5180012515709182116188
:102AD0005B601B6053682360FDF74EFB002000E045
:102AE000054803B030BDC0469C0A0020031D00020B
:102AF000F8C3B2A1D4830000021D0002F0B585B076
:102B00000D000E2808D93F4C0023009322003E49B7
:102B10003E4800F009FF72E03D4B1E684300181864
:102B2000C300F618FDF720FB03903378002B0AD181
:102B3000FDF722FB334C0023009322003249334837
:102B400000F0F2FE5BE000F0B9FF041E04D0039831
:102B5000FDF712FB2F4C52E02F4B1F687388002BA0
:102B600008D1013373803761FB88B3820398FDF786
:102B700003FB44E03269974205D101337380039827
:102B8000FDF7FAFA3BE0002D04D10398FDF7F4FAC3
:102B9000224C34E0224B1B88002B0AD0214803F042
:102BA0004FFB214803F0C8FB0398FDF7E5FA1F4CE3
:102BB0001EE0FE613069C388F9888B4201D9FFF7B6
:102BC00091FA300008302A000821FFF727FE039809
:102BD000FDF7D2FA00F0BCFEBB885B060FD5FDF70F
:102BE000C3FABB8840229343BB80FDF7C5FA104C63
:102BF0000023009322000449044800F095FE2000C1
:102C000005B0F0BD011D0002F8C3B2A1D4830000DD
:102C1000980A0020051D000200090020041D000282
:102C2000FC080020EC800000E8830000061D000284
:102C3000071D000270B582B004002E4B1D684300D2
:102C40001B18DA00AD18FDF78FFA06000E2C02D81B
:102C50002B78002B0CD13000FDF78EFA264C002388
:102C6000009322002549264800F05EFE20003FE048
:102C7000244B1A686B88002B02D0286982420CD042
:102C80003000FDF779FA1C4C0023009322001B4909
:102C90001B4800F049FE20002AE0013B9BB26B80FC
:102CA000002B04D03000FDF767FA002020E0C38835
:102CB000A98A8B4201D0FFF715FA2B000833E86888
:102CC000834211D0283801236B802861C388AB82EE
:102CD0000023C3610821FFF7CBFD3000FDF74CFA5C
:102CE00000F036FE002003E03000FDF745FA00203A
:102CF00002B070BD980A0020011D0002F8C3B2A105
:102D0000D48300000009002010B5164B1868DC21A0
:102D1000490000F07BFC144B186000281FD0DC2217
:102D20005200002103F084FA104B5B601B6000220C
:102D300011E00D4B19682C235343CB185A8118000E
:102D40001C300A4909684C681C62D9614B681860DC
:102D50004860013292B2092AEBD9002000E0044811
:102D600010BDC046C4080020AC0A0020A40A002000
:102D700001060002F0B5474680B40D00160006AB10
:102D80001B881A1D94B2002E40D0264A93423FD889
:102D900000293FD0002B3FD0234B18682100694306
:102DA00000F034FC8046002838D0FDF7DDF91F4ADA
:102DB0005368934208D1FDF7DFF91B4B1868414671
:102DC00000F03CFC1A482AE05A68196811601A6839
:102DD0005968516000221F001C3FFD803C81414624
:102DE00039600121B9803A827D82BA81FA811A0064
:102DF000083A526012605B601B601032DA609A60C1
:102E0000FDF7BAF97B893360002008E0094806E045
:102E1000094804E0094802E0084800E0084804BC0A
:102E20009046F0BDFBFF0000C4080020A40A00206B
:102E3000040600020C060002030600020D06000252
:102E400002060002F0B5574680B486B004000F00B9
:102E500002921E0001250D40FDF786F90190704B8E
:102E60001B682C2060431C18A388002B00D1C5E0F0
:102E7000002D05D12389043B32689A4200D2BFE07D
:102E8000002D05D02389043B32689A4200D9B9E06D
:102E90002B0008335B001B5B002B2AD10C9B002B03
:102EA00004D1002D00D0AFE05E4CB0E05E4B1B883B
:102EB000002B00D0AAE05D4B1B689A46A81CC000FE
:102EC000201804300C9A80218901FFF7A7FC019893
:102ED000FDF752F900F03CFDFDF746F9019053462D
:102EE0009B885A060AD54022934352469380504C01
:102EF0008DE02A0008325200013B13530023059352
:102F000003333B40012B0FD0002B02D0032B16D0F4
:102F100020E0A089421CE3889A4202D10023A381C9
:102F20001FE0431CA3811CE0A389002B03D1E3888D
:102F3000013BA38101E0013BA381A08911E0E0896D
:102F4000421CE3889A4202D10023E38109E0431C3A
:102F5000E38106E0374803F073F9374803F0ECF9F2
:102F600030E02189484323689A4682447B070DD587
:102F7000FB0706D453461B680393029B039A1A600F
:102F800020E05346029A12681A601BE0FB070DD43A
:102F900004395144042205A803F041F9059A514629
:102FA000029803F03CF9059B33600BE0326802990C
:102FB000504603F034F9208904385044042231008B
:102FC00003F02DF96B426B419A1CD200A218111D1F
:102FD000906881420BD0283880218901FFF748FC96
:102FE0000198FDF7C9F800F0B3FC002013E00833A6
:102FF0005D002B5B01332B53002408E00F4C06E0EF
:103000000F4C04E00F4C02E00F4C00E00F4C019815
:10301000FDF7B2F8200006B004BC9246F0BDC046F1
:10302000AC0A00201D060002FC0800200009002058
:1030300007060002EC8000000C8400000A06000273
:103040001F06000215060002160600020606000210
:10305000F0B583B004000D0017001E0009280ED83B
:1030600000290ED0002A0ED01368002B0DD0002EA0
:103070000DD000F023FD00280AD00B4808E00B48D3
:1030800006E00B4804E00A4802E00A4800E000209D
:10309000002806D100963B002A0000212000FFF7FF
:1030A000D1FE03B0F0BDC046180600020E060002B5
:1030B0000F0600021006000270B584B004000D0077
:1030C00003921E0009280BD800290BD0002A0BD030
:1030D000002E0BD000F0F2FC002808D0094806E0D2
:1030E000094804E0094802E0094800E000200028FF
:1030F00006D1009603AB2A0003212000FFF7A2FEB1
:1031000004B070BD090600020E060002120600029D
:103110001306000210B5144B5B601B60134B18685C
:10312000A021490000F072FA114B1860002818D055
:10313000002212E00E4B19681301CB18DA8000212F
:10314000198018000830084909684C68DC609960EB
:103150004B6818604860013292B2132AEAD9002005
:1031600000E0044810BDC046B00A0020C40800209A
:10317000B80A00200007000243688B4206D00B000B
:103180000833486880008008181800E00020704765
:1031900070B505000C0000281AD058291AD90A0069
:1031A000002103F045F8AC602A0050322A606A60C2
:1031B000D37940218B43D37100232B65583CA40065
:1031C000A30851688C0FA4071C435460012002E03F
:1031D000002000E0002070BDF0B583B005000F00B6
:1031E00000287ED000297ED00B1F1B68002B02DA3E
:1031F0005B005B08CF1A3C002B68BB4203D86B68AE
:1032000008339F4208D9394803F01AF8210038489A
:1032100003F016F8002067E0FCF7A6FF04003E006C
:10322000083EF3795B0650D52B680196B3420CD06B
:1032300031688B424BD86B680833994249D82800D3
:10324000FFF79AFF019B834245D13B00083BDA79A7
:1032500040218A43DA715B689B009B0819000831A2
:10326000244A1268914205D8D31A083B214A1360B8
:1032700000E01E003368002B15D0DA795206F8D52D
:1032800011E043689B009F0871688B009B08DB1965
:1032900008339B009A088B0F9B07134373606B687E
:1032A000984200D16E6031002800FFF765FF0028CA
:1032B00002D0C3795B06E4D5002800D006600E4A30
:1032C000136801331360012506E0002504E00025A2
:1032D00002E0002500E000252000FCF74DFF28005B
:1032E00002E0012000E0012003B0F0BDEC8000000E
:1032F00028840000A00200209C02002010B50028B5
:1033000020D0002920D04368002409E0DA79520651
:1033100005D55A68920092081219083214001B68E9
:10332000002BF3D183689C4210D84C6082680A60FD
:10333000121B8A60064B1B68CB60064B1B680B6137
:10334000002004E0012002E0012000E0012010BD87
:10335000A40200209C02002010B586B004001422B4
:10336000002101A802F064FF01A92000FFF7C6FFB9
:1033700006B010BDF0B583B007000E0000287AD06B
:10338000FCF7F2FE0190033603239E437B68002581
:1033900013E0DA7952060FD45A68920092081000AE
:1033A000964209D8002D04D06968890089089142A5
:1033B00002DD864238D01D001B68002BE9D1002DAC
:1033C00007D12E4802F03CFF31002D4802F038FFB3
:1033D00042E06B689B009B089B1B082B25D92B00A8
:1033E00008339C19E37940229343E3716B689B0097
:1033F0009B089B1B083B9B009A0863689B0F9B07DD
:1034000013436360256029003800FFF7B5FE0028EC
:1034100001D17C6000E00460B3009A086B689B0FE8
:103420009B0713436B6000E01D00EB797F22134084
:1034300040221343EB710835124B1A6894466644D8
:1034400008361E60104B1B689E4201D90E4B1E6051
:103450000E4A1368013313607B685B689B009B080E
:103460000B4A934202DC3800FFF776FF0198FCF725
:1034700083FE280000E0002003B0F0BDEC800000D7
:103480003C840000A0020020A8020020A40200202A
:10349000FF03000010B5140000281AD000291AD02C
:1034A000032A1AD9531E134219D189180439FFF778
:1034B00061FF002814D02318013B62421A40904259
:1034C0000ED0101A80231B061843131F186010001B
:1034D00006E0002004E0002002E0002000E00020E0
:1034E00010BDC04610307047F0B54F464646C0B4D8
:1034F00085B0071E8946364B1C685AD050295BD9C7
:10350000050003230340984659D1FCF72DFE039094
:10351000260024E02600A3681B19BC4203D34A46B8
:103520005219944205D39D4217D24A4652199342EA
:1035300013D8284802F084FE4B46FA18A3689C462C
:103540006644009623003900234802F079FE039870
:10355000FCF712FE0123984633E02600E468002CB5
:10356000D8D149463800FFF713FE002805D103984B
:10357000FCF702FE0123984623E0184B99450AD92F
:10358000380000F025F9002805D10398FCF7F4FD78
:103590000123984615E00E4B1B68002B02D10C4B03
:1035A0001F6000E0F7600023FB600398FCF7E4FD78
:1035B00007E00123984604E00123984601E0012337
:1035C0009846404605B00CBC90469946F0BDC046B2
:1035D000AC020020EC8000006C840000FF0F0000B3
:1035E00010B50649064A8818064B5B42591A064B25
:1035F0009C466144891AFFF777FF10BD500C0020EC
:1036000000040000000400000080002070B50400E9
:103610000D0000280AD000290AD000F007F9002880
:1036200007D129002000FFF7A5FE02E0002000E0FE
:10363000002070BD10B5FFF72DFF10BD70B5040060
:103640000D0000280ED000290ED000F02DF9012821
:1036500003D029002000FFF7BFFD0138431E984129
:10366000C0B202E0012000E0012070BD70B505008D
:103670000C0002C00A001F32D208002102F0D8FD5F
:103680001F23234006D06409012252429A40A4001D
:103690002C19626070BDC04603688B4209D94B0982
:1036A0009B00C01840681F231940C8401E3B1840AB
:1036B00000E000207047C046021D4B099B00D31854
:1036C0000268914206D21F2211401E3A8A401968B0
:1036D000914319607047C04630B508C81F335B0975
:1036E000002115E00468621C02D1013104300FE0B2
:1036F000E343002201E05B080132002BFBD1551EA1
:103700000133AB402343036048011018013803E044
:103710009942E7D30120404230BDC046F8B51D00B4
:103720001C001F34E4080434A418013C53421C401C
:103730005118013919400F00694361180C31FFF726
:1037400019FE061E07D007600C30B06004197460C3
:103750002900FFF78BFF3000F8BDC04610B504000C
:103760008068FFF7B9FF002804DB626823685843CC
:10377000101800E0002010BDF8B505004368CC1A11
:10378000076839002000FCF747FD060039002000DB
:10379000FCF7C8FD081E0FD1AC6823689E420CD20E
:1037A00031002000FFF778FF002806D0310020000C
:1037B000FFF782FF012000E00020F8BD034B0380EB
:1037C00081700023C37004307047C046DEDEFFFF07
:1037D000F0B583B00190FFF785FE050000270024B7
:1037E0001BE01026A640310080208000FCF714FD6D
:1037F00022015651AA18506000239360D368002B11
:1038000001D0013708E0311D030004220198FFF7C1
:1038100085FF2301EB18D8600134032CE1D9002F78
:1038200001D1012000E0002003B0F0BDF8B50D008B
:10383000FFF758FE0700802D33D800242DE0230128
:10384000DB599D4228D8FCF78FFC06002301FB18AA
:103850009A685B689A4203D3FCF78EFC002021E053
:103860002301FB18D868002804D13000FCF784FC41
:10387000002017E0FFF772FF051E08D02401E15970
:10388000FFF79CFF05003C19A3680133A3603000DB
:10389000FCF772FC280005E00134032CCFD900208E
:1038A00000E00020F8BDC046F8B50D00FFF71AFE95
:1038B00006002F1F3A88154B9A4224D100241EE09F
:1038C0002B1F9A7823019B599A4217D8FCF74CFC7E
:1038D00005002301F318D8683900FFF74DFF0128D0
:1038E00006D124013419A368013BA360012400E040
:1038F00000242800FCF740FC200005E00134032CE4
:10390000DED9002000E00020F8BDC046DEDE000069
:103910004318013B984203D249421940080001E094
:10392000494208407047C04630B583B0044C246813
:10393000002C02D0069D0095A047002003B030BDAA
:10394000BC0A002072B6FEE710B5FCF718FC10BDEB
:1039500010B5FCF709FC0400FEF770F92838094B94
:1039600058601B68984209D0074B1B88002B05D173
:103970002000FCF701FCFCF702FC02E02000FCF751
:10398000FBFB10BD00090020FC08002070B50600FC
:103990000D0014000A001649200002F049FC154BE6
:1039A00023602C1920004438134B0360134B4360F1
:1039B000134B8360134BC360134B0361134B436181
:1039C000134B8361134BC361002303624662124BA6
:1039D0008362124BC362124B0363124B4363124B5D
:1039E0008363124BC36380235B04036470BDC046D2
:1039F000CACACACACCCCCCCC04040404050505054B
:103A0000060606060707070708080808090909093E
:103A10001010101011111111010101010202020216
:103A2000030303031212121245390000F5270000A8
:103A300070B5184B1868184B984226D9FA2189009E
:103A4000FCF7EAFB154B186000240025144B1C60A2
:103A50005D600138134B98420FD8134A50601349E8
:103A60000B6A1B021B0AC020000603430B620023E3
:103A7000936007331360002300E00123012B06D07D
:103A800001220B4B1A60002002E00A4800E00A48BD
:103A900070BDC04600000020E7030000800A00203F
:103AA000780A0020FFFFFF0010E000E000ED00E0DA
:103AB000980200200004000202040002EFF30580D7
:103AC0007047C04610B5FCF75EFB10BD70B5084BE3
:103AD0001B68002B02D0FEF767FF08E005490122B2
:103AE00000230C684D6812196B410A604B6070BD71
:103AF00098020020780A0020034A136806218B43AD
:103B0000084018431060704700280140012805D183
:103B1000054A116801230B43136004E0024A13684D
:103B200001218B431360704700280140034A13684A
:103B300003218B4308401843106070470010004079
:103B40000904090C01617047034A93690F218B43F3
:103B50000840184390617047E00C0040012805D1EF
:103B6000054AD16902230B43D36104E0024AD369B9
:103B700002218B43D3617047E00C0040012805D13E
:103B8000054AD16901230B43D36104E0024AD3699A
:103B900001218B43D3617047E00C0040034A136A54
:103BA00020218B430840184310627047E00C00400E
:103BB000034A136A10218B43084018431062704770
:103BC000E00C0040034A136A08218B430840184365
:103BD00010627047E00C0040034A136A04218B43D3
:103BE0000840184310627047E00C0040034A136A13
:103BF00002218B430840184310627047E00C0040DC
:103C0000034A136A01218B4308401843106270472E
:103C1000E00C004030B5002425E00123A3400A68F1
:103C20001A4093421ED10268DB431A401500CA793C
:103C3000A2402A43026042681A4015008A79A240D5
:103C40002A434260826813404A79A240134383604A
:103C500065000322AA40C36893431A000B79AB4066
:103C60001343C36001340F2CD7D930BD10B50023E6
:103C700004E001249C40214202D101330F2BF8D9EA
:103C80000F2B2ED8116004680C40DC40012C01D1B0
:103C9000D47101E00024D47144680C40DC40012C54
:103CA00001D1947101E00024947184682140D940CD
:103CB000012901D1517101E000215171C1685B00FE
:103CC000D9400B0003210B4001D1137109E0012BF6
:103CD00001D1137105E0022B01D1137101E003231F
:103CE000137110BDC369194201D0012000E000200A
:103CF0007047C0464161704781617047036919424E
:103D000001D0816100E041617047C046012906D1C0
:103D1000064A516A012383400B43536205E003497D
:103D20004B6A0122824093434B627047E00C004093
:103D3000012904D1044B9A6A1043986203E0024AB5
:103D4000936A834393627047E00C0040012805D1D9
:103D5000054A516804230B43536004E0024A536848
:103D600004218B435360704700140140034A536899
:103D700003218B43084018435060704700140140F2
:103D8000014A024B1A6070475A5A3412001401401B
:103D9000012806D1064AD368802109060B43D36067
:103DA00004E0034AD3685B005B08D3607047C046F9
:103DB00000020040012806D1064AD3688021890408
:103DC0000B43D36004E0034AD168034B0B40D3603C
:103DD0007047C04600020040FFFFFFFD0449CA686B
:103DE000044B1A4080235B0418401043C86070479E
:103DF00000020040FFFFFFFE0449CA68044B1A405E
:103E0000E023DB0218401043C86070470002004006
:103E1000FFFFF8FF024BD868E023DB021840704731
:103E2000000200400449CA68044B1A40E023DB004A
:103E300018401043C860704700020040FFF8FFFFC1
:103E4000024BD868E023DB001840704700020040B6
:103E5000034AD36803218B4308401843D06070475E
:103E600000020040024BDB68032018407047C04648
:103E70000002004004490A69044B1A40C0239B0217
:103E8000184010430861704700020040FFFFFCFF2C
:103E9000024B1869C0239B02184070470002004083
:103EA000012805D1054A116901230B43136104E080
:103EB000024A136901218B431361704700020040DD
:103EC000034B1B69DB0701D5012000E00020704790
:103ED000000200407F231840014B58617047C046E4
:103EE0000002004004498A69044B1A40044B184000
:103EF000104388617047C04600020040FFFF00FC8D
:103F00000000FF03024B9869024B18407047C046FF
:103F1000000200400000FF03034A936908218B431D
:103F2000084018439061704700020040034A9369BB
:103F300006218B43084018439061704700020040FF
:103F4000024B9B69062018407047C04600020040A3
:103F5000012805D1054A916901230B43936104E0CF
:103F6000024A936901218B4393617047000200402C
:103F7000034B9B69DB0701D5012000E0002070475F
:103F800000020040034A536C01218B430840184350
:103F9000506470470002004070B504000023C36005
:103FA0000361036043608360FFF78AFF012806D145
:103FB000FFF76EFF000C01303C4B5843E060FFF709
:103FC000D7FF012815D1FFF7BBFF4008012802D019
:103FD000022803D005E0FA25ED0104E0E3681D0A9C
:103FE00001E080252D02FFF78DFF000C01306843B2
:103FF0002061FFF737FF012809D0002804D00228EC
:1040000009D003280BD00DE0E36823600CE0FA230D
:10401000DB01236008E080231B02236004E02369A6
:10402000236001E0E3682360FFF70AFF000A052828
:104030000CD002D8042805D014E006280AD007289E
:104040000CD00FE023685B0863600DE023689B08D9
:10405000636009E02368DB08636005E023681B09EF
:10406000636001E023686360FFF7D4FE000C05285D
:104070000CD002D8042805D014E006280AD007285E
:104080000CD00FE063685B08A3600DE063689B08D9
:10409000A36009E06368DB08A36005E063681B09AF
:1040A000A36001E06368A36070BDC04600127A009F
:1040B000F0231B0503408022920493420FD004D8C2
:1040C00080225204934210D007E0C022920493420F
:1040D00007D08022D204934205D0002306E00B4B88
:1040E00004E00B4B02E00B4B00E00B4B002B0CD021
:1040F000FF221040FE3A8240002903D019680A438B
:104100001A6002E019689143196070472C02004060
:1041100030020040340200402802004010B5040084
:104120000068FFF7A7FE2079FFF7BAFE10BDC04672
:1041300010B50004FFF7D6FE10BDC04610B5040050
:104140000068FFF7F5FF6068FFF7E6FEA068FFF77D
:10415000EDFE207BFFF7FCFE10BDC04610B504004D
:104160000068FFF775FE6068FFF75CFEA068FFF768
:1041700043FEE068FFF732FE207CFFF71BFE607C09
:10418000FFF706FE10BDC04610B5012802D1114B45
:10419000186810E0022802D10F4B18680BE00328C2
:1041A00002D10E4B186806E0042802D10C4B1868A7
:1041B00001E0084B1868020CC3431B041B0C9A4215
:1041C00004D17F231840FFF785FE02E04020FFF76F
:1041D00081FE10BD40FDFF1F3CFDFF1F38FDFF1F8E
:1041E00034FDFF1F012807D18022D20553688021AA
:1041F00089010B43536005E08022D2055168024BD0
:104200000B4053607047C046FFDFFFFF012807D116
:104210008022D2055368802149010B43536005E099
:104220008022D2055168024B0B4053607047C04654
:10423000FFEFFFFF012807D18022D20553688021BC
:1042400009010B43536005E08022D2055168024BFF
:104250000B4053607047C046FFF7FFFF012807D1AE
:104260008022D20553688021C9000B43536005E0CA
:104270008022D2055168024B0B4053607047C04604
:10428000FFFBFFFF012807D18022D2055368802160
:1042900089000B43536005E08022D2055168024B30
:1042A0000B4053607047C046FFFDFFFF012807D158
:1042B0008022D2055368802149000B43536005E0FA
:1042C0008022D2055168024B0B4053607047C046B4
:1042D000FFFEFFFF012806D18022D205516802238C
:1042E0000B43536005E08022D205536802218B43C3
:1042F00053607047012806D18022D20551680123FE
:104300000B43536005E08022D205536801218B43A3
:10431000536070470368C022934311401943016002
:104320007047C046012904D102682023134303606B
:1043300003E003682022934303607047012904D1FE
:10434000026810231343036003E0036810229343C1
:104350000360704743684022934311401943416012
:104360007047C0464368202293431140194341607F
:104370007047C046012904D14268102313434360AB
:1043800003E043681022934343607047012904D13E
:10439000426808231343436003E0436808229343C1
:1043A000436070478368FF2018407047FF2319401F
:1043B000C16070470904090C0161704743690C2210
:1043C00093431140194341617047C046012904D10C
:1043D000C26904231343C36103E0C3690422934306
:1043E000C3617047012904D1C26902231343C36129
:1043F00003E0C36902229343C3617047012904D1DA
:10440000C26901231343C36103E0C36901229343DB
:10441000C36170470B4B9C4660440009002900D1E2
:104420000130012A06D108490A6801238340134359
:104430000B6005E004490B680122824093430B6046
:104440007047C046F4DFFEBF00200140084B9C4689
:1044500060440009002900D10130064B1A6801238D
:1044600083401A4201D0012000E000207047C0467E
:10447000F4DFFEBF00200140044B9C46604400096D
:1044800001238340024A53607047C046F4DFFEBFF9
:1044900000200140084B9C4660440009002900D1DF
:1044A0000130064B5A68012383401A4201D0012093
:1044B00000E000207047C046F4DFFEBF002001404E
:1044C00070B504000D004968FFF774FFA96820006B
:1044D000FFF720FF2023E95C2000FFF777FF296921
:1044E0002000FFF737FF297B2000FFF71BFF6969DA
:1044F0002000FFF737FFE9692000FFF75FFF2A7808
:1045000000212000FFF786FF6A7801212000FFF7D5
:1045100081FF2123E95C2000FFF764FF2223E95C8F
:104520002000FFF76BFF697B2000FFF707FF297E64
:104530002000FFF71FFF697E2000FFF727FF70BDF7
:1045400070B505000800FCF71DFA041C2800FCF7F4
:1045500019FA011C201CFCF74BF8041CFE218905EC
:10456000FBF7F6FF00280DD0201CFDF7FFF8002216
:10457000054BFCF771FD0022044BFCF741FAFCF7F8
:1045800019F800E0002070BD0000F03F0000E03F9F
:1045900030B58BB005000C0011002068FFF7D0FF8C
:1045A00001AB02900021202299542379012B0DD1D7
:1045B0006379012B02D13F33039312E0022B02D126
:1045C0007E3303930DE0002303930AE0022B02D114
:1045D000BE33039305E001AB002203920121203298
:1045E0009954A379002B01D1059301E04023059351
:1045F00001A900230B704B700B7320224A61CB6121
:1046000001328B5401328B544B730B764B7628005E
:10461000FFF756FF0BB030BD014A024B1A607047DE
:1046200000127A000000002070B5FFF7A9FB0A20F5
:10463000FEF782F9084D20212800FFF75DFBFA24E0
:1046400064002000FEF778F920212800FFF752FBD4
:104650002000FEF771F9E8E7000C004000B587B0D4
:1046600000F0C2F9FA208000FEF766F92E4800F04B
:10467000EFF90028F6DB2D4801F0E2FD00F072FBB7
:10468000011EEFDB2A4801F0DBFDFA208000FEF777
:1046900053F900F077F90028E4DB264801F0D0FD5B
:1046A000FA204000FEF748F9234801F045FE0522B4
:1046B000002101A801F0BCFD204B00229A56002ADF
:1046C00004D01F4901A801F041FE04E013001D4978
:1046D00001A801F03BFE052101A800F037FA0028EF
:1046E00003DB194801F028FE02E0184801F024FE1F
:1046F00000F076FBFA204000FEF71EF90A220021A6
:1047000003A801F095FD052103A800F0CDFA0028CB
:10471000C6DD03AA01000E4801F092FD10210D48EC
:10472000FFF7ECFABCE7C0469C840000A8840000B8
:10473000C4840000D8840000F4840000B00200208B
:10474000048500000C850000148500002885000009
:1047500040850000000C004010B501F01FFD10BDA9
:1047600070B5FA24A4002000FEF7E6F8FFF708FB76
:104770002000FEF7E1F8FFF703FB2000FEF7DCF86E
:10478000FFF7FEFAFBF7F0FC0400FFF7E5FF20005F
:10479000FBF7F2FCFBF7E8FC05000A490A4801F0C8
:1047A000C9FC04002800FBF7E7FC002C03D1064BF2
:1047B0001A78064B1A70FFF7E3FAFA208000FEF72A
:1047C000BBF8E7E7400B0020410B0020B0020020BF
:1047D00030B589B00C000CA90D8801A98B608D80C3
:1047E00008610194CA6007A8FDF7ECFE09B030BD6E
:1047F00000B583B001F064F900F000FBFDF770F93B
:1048000000282DD18023184A96218901033001F018
:10481000E9FA164801F014FD0C23009300238022CE
:10482000D20013491348FFF7D3FF002818D10E23F5
:10483000009300238022D2000F491048FFF7C8FFE1
:1048400000280DD11023009300238022D2000C49B0
:104850000C48FFF7BDFF002802D1FDF72DF9FEE758
:10486000012003B000BDC046C00A0020A0850000A2
:104870005D460000AC85000029460000B8850000B8
:1048800061470000C4850000F0B5002824D000294D
:1048900025DD002A26D000261AE03400835D392B5E
:1048A00002D8303BDDB201E0373BDDB203195B7863
:1048B000392B02D8303B1C0001E0373B1C00F70FBE
:1048C000BF197F102D010F2323402B43D3550236F0
:1048D0008E42E2DB002007E00120404204E001209C
:1048E000404201E001204042F0BDC046F8B506005C
:1048F0000D001700002810D0002911DD002A12D069
:10490000002406E06000325D3818084901F01EFD01
:104910000134AC42F6DB002007E00120404204E015
:104920000120404201E001204042F8BDD085000056
:1049300010B5002812D0002912DD002B12DB002A4E
:1049400005D10A000100032001F09EFA0BE00023CC
:104950000A000100032001F097FA04E0002002E0C1
:10496000002000E0002010BD10B5002808D000296C
:1049700006DDFA235B000A000100032001F0D8FAEB
:10498000002010BD70B5154B1B695B6800220A2121
:1049900013489847002818DB104D2C68202200216E
:1049A000200001F045FC2B691D68C823002220214E
:1049B0002000A84700280BDD084B1868094901F0C2
:1049C0005DFD002807D1013806E00120404203E0E8
:1049D0000120404200E0002070BDC04604000020DD
:1049E0004C8600005886000070B5154B1B695B684B
:1049F0000022072113489847002818DB104D2C6827
:104A000040220021200001F013FC2B691D680E4B91
:104A1000002240212000A84700280BDD084B186821
:104A20000A4901F02BFD002807D1013806E00120DA
:104A3000404203E00120404200E0002070BDC0463B
:104A400004000020788600007017000080860000B7
:104A500070B582B0041E57D0FBF7D6FB0F2856D88E
:104A6000354D6E6840220021300001F0E1FB0D233E
:104A700000932300314A3249300001F067FC2B6972
:104A80005E686D682800FBF7BFFB0100002228006C
:104A9000B04700283EDB284E356820220021280040
:104AA00001F0C6FB33691E68C823002220212800BC
:104AB000B047002831DD204B1868224901F0DEFCA8
:104AC00000282DD01C4B1B695B68002209211E4861
:104AD0009847002827DB184E35682022002128003F
:104AE00001F0A6FB33691E68C8230022202128009C
:104AF000B04700281ADD104B1868210001F0BEFCF9
:104B0000002816D1013815E00120404212E00120B2
:104B100040420FE0012040420CE00120404209E009
:104B20000120404206E00120404203E001204042D3
:104B300000E0002002B070BD040000208C86000060
:104B4000108600001886000098860000F0B585B039
:104B500007000D0000230393002873D0474B9942B0
:104B600073DC474C40220021606801F061FB454E38
:104B7000802292000021300001F05AFB320029000F
:104B80003800FFF7B3FE60680D23019300962B00F9
:104B90003D4A3E4901F0DAFB61683D4801F050FBB7
:104BA00023695D6864682000FBF72EFB010000228A
:104BB0002000A84700284BDB314D2C682022002123
:104BC000200001F035FB2B691D68C823002220213D
:104BD0002000A84700283EDD294B1C682D492000F5
:104BE00001F04CFC002839D040220021200001F0C7
:104BF0001FFB234B1B695B6800220921264898474D
:104C000000282EDB1E4B1A6914681868C82300227E
:104C10004021A047002827DD194B18681F4901F0E3
:104C20002DFC002823D0164B5B6803AA1C4901F019
:104C3000AFFB039B1B4A126893421BD0194A1360B7
:104C4000002019E00120404216E00120404213E01C
:104C50000120404210E0012040420DE0012040428E
:104C60000AE00120404207E00120404204E0012028
:104C7000404201E00120404205B0F0BDFF010000CC
:104C800004000020B4040020A4860000B0860000C8
:104C9000BC86000018860000C0860000CC8600009C
:104CA000D4860000B4080020F0B583B005000023CE
:104CB000019300283AD000293BD0254B1B695B6843
:104CC0000022092123489847002835DB204F3C6803
:104CD0008026B60032000021200001F0A9FA3B69CD
:104CE0001F6887239B00002231002000B84700285E
:104CF00025DB174B1C681849200001F0BFFB00287A
:104D000004D12000FBF780FA0A281BD9134B01AA13
:104D10001349200001F03CFB0199002914DD4900F2
:104D20002A000E48FFF7B0FD01980EE00120404236
:104D30000BE00120404208E00120404205E0012054
:104D4000404202E0002000E0002003B0F0BDC04679
:104D5000040000200C87000018860000B404002026
:104D60001887000030B583B000230193184B1B69EE
:104D70005B68002208211748984700281EDB144D65
:104D80002C6864220021200001F052FA2B691D6872
:104D9000C823002264212000A847002811DD0C4B05
:104DA0001C680D49200001F069FB00280CD001AA05
:104DB0000A49200001F0ECFA019807E00120404286
:104DC00004E00120404201E00120404203B030BD38
:104DD0000400002040870000188600004C87000077
:104DE00010B5802292000021034801F021FA03202F
:104DF00001F0DCF8002010BDB402002010B5064C14
:104E0000200000F0EDFE01212000FFF797FA0121BC
:104E10002000FFF7AFFA10BD2C2001400160426076
:104E2000009A8260C36000207047C046F8B5040055
:104E30000E00002847D0002948D0002A49D08068B9
:104E40006168884248D00F1A974200D917003D0088
:104E5000E3689C46604481420DDAFBF74DFB236812
:104E600058183A00310001F0DAF9A3689C4667440B
:104E7000A760002711E03F18B9420DDA0F1A236826
:104E80009C4660443A00310001F0C9F9F619A36864
:104E9000DB19A360EF1B00E02F00002F1EDDE3688D
:104EA000A2689446634418006168FBF725FB2368F9
:104EB00058183A00310001F0B2F9A3689C466744E3
:104EC000A76028000BE00120404208E0012040429A
:104ED00005E00120404202E0002000E02800F8BD8B
:104EE000F0B583B005000F00002836D0002937D078
:104EF000002A38D08068002839D00400904200D9B8
:104F000014000194E96863186A68934212DB561A28
:104F10002B689C4661443200380001F080F9EB6850
:104F2000F0186968FBF7E8FAE960AB689B1BAB60B7
:104F3000A41BBF19002C19DD2B68EA689446634452
:104F400019002200380001F06AF9EB68E318EB6001
:104F5000AB681C1BAC60019809E00120404206E0F0
:104F60000120404203E00120404200E0019803B0EC
:104F7000F0BDC046002801D0806801E00120404219
:104F80007047C046002804D000238360C36000201F
:104F900001E0012040427047084A094B536009492B
:104FA0000B6A1B021B0AC020000603430B6200238E
:104FB000936007331360023B1360704710E000E01A
:104FC000FFFFFF0000ED00E0074B9A68F0231B0491
:104FD000984200D91800044B9B68D31A1B021B0A85
:104FE0009842F8D87047C04610E000E070B5040061
:104FF0000D0009E0002D02D0A847002806D1FA20B4
:105000004001FFF7E1FF013C002CF3D170BDC04629
:1050100010B5044B984200D91800C000FFF7D4FF28
:1050200010BDC046A086010003688B4202D001601B
:10503000012000E00020704770B584B005000C002E
:1050400016006A46FEF712FE009B9C4214D16B4686
:10505000DB79002B10D1002E03D16B465B79002B3E
:105060000AD1012E03D16B465B79012B04D10D4B84
:10507000019A1340012B12D00294002202ABDA7184
:10508000002E01D15A7102E0012202AB5A7102A92D
:1050900000238B7101330B712800FEF7BBFD04B0B8
:1050A00070BDC046FF00FF0070B584B006000C0064
:1050B00015006A46FEF7DAFD009B9C4221D16B4643
:1050C000DB79002B1DD101332B4003D16A46527985
:1050D000002A16D1002B03D06B465B79012B10D12F
:1050E00002232B4003D16A469279002A09D1002B72
:1050F00003D06B469B79012B03D16B461B79022BA6
:105100001AD00294002202ABDA71EB0702D402AB90
:105110005A7102E0012202AB5A71AB0703D400229C
:1051200002AB9A7102E0012202AB9A7102A902233A
:105130000B713000FEF76EFD04B070BD30B583B06A
:1051400004000D006A46FEF791FD6B461B79012BAA
:1051500009D029002000FEF7CDFD01222900200002
:10516000FFF76AFF08E0012229002000FFF764FF33
:1051700029002000FEF7BEFD03B030BD10B50021B0
:105180000D48FEF7DDFC00210C48FEF7D9FC00219C
:105190000B48FEF7D5FC00210A48FEF7D1FC0021A0
:1051A0000948FEF7CDFC00210848FEF7C9FC0021A4
:1051B0000748FEF7C5FC10BD000C0040200C004065
:1051C000400C0040600C0040800C0040A00C0040EF
:1051D000C00C0040F8B55D4C01212000FFF7AEFF88
:1051E00002212000FFF7AAFF80277F00584C3900DA
:1051F0002000FFF7A3FF8026B60031002000FFF754
:105200009DFF8025ED0029002000FFF797FF8021FA
:1052100009012000FFF792FF802149012000FFF7DC
:105220008DFF802189012000FFF788FF8021C901BF
:105230002000FFF783FF802109022000FFF77EFF97
:10524000444C01212000FFF779FF02212000FFF7E5
:1052500075FF20212000FFF771FF40212000FFF79C
:105260006DFF80212000FFF769FF39002000FFF764
:1052700065FF31002000FFF761FF29002000FFF7E4
:105280005DFF802109012000FFF758FF80214901BF
:105290002000FFF753FF802189012000FFF74EFF18
:1052A0008021C9012000FFF749FF80210902200069
:1052B000FFF744FF284C01212000FFF73FFF0221A8
:1052C0002000FFF73BFF04212000FFF737FF80217C
:1052D0002000FFF733FF39002000FFF72FFF3100D8
:1052E0002000FFF72BFF29002000FFF727FF1B4CB2
:1052F00001212000FFF722FF02212000FFF71EFFFF
:1053000010212000FFF71AFF20212000FFF716FFD1
:1053100029002000FFF712FF802109012000FFF77C
:105320000DFF802149012000FFF708FF802189013E
:105330002000FFF703FF8021C9012000FFF7FEFED8
:10534000802109022000FFF7F9FEF8BD400C004063
:10535000600C0040800C0040A00C0040C00C0040DD
:1053600010B5074C21000748FFF75EFE21000648F4
:10537000FFF75AFE21000548FFF756FE10BDC04654
:105380000000FFFFE00C0040E40C0040E80C00408F
:1053900010B50020FEF702FC0020FEF709FC0020FB
:1053A000FEF710FC0020FEF717FC0020FEF71EFCA5
:1053B0000020FEF725FC10BD10B500218020000460
:1053C000FEF7A4FC00218020C003FEF79FFC002113
:1053D00080208003FEF79AFC002180204003FEF726
:1053E00095FC002180200003FEF790FC0021802026
:1053F000C002FEF78BFC002180208002FEF786FCB5
:10540000002180204002FEF781FC00218020000264
:10541000FEF77CFC00218020C001FEF777FC002114
:1054200080208001FEF772FC002180204001FEF701
:105430006DFC002180200001FEF768FC0021802027
:10544000C000FEF763FC002180208000FEF75EFCB8
:10545000002180204000FEF759FC00218020FEF74B
:1054600055FC00214020FEF751FC00212020FEF7D2
:105470004DFC00211020FEF749FC00210820FEF71A
:1054800045FC00210420FEF741FC00210220FEF72C
:105490003DFC00210120FEF739FC10BD10B50021B4
:1054A0008020FEF745FC00214020FEF741FC002152
:1054B0002020FEF73DFC00211020FEF739FC0021E2
:1054C0000820FEF735FC00210420FEF731FC002106
:1054D0000220FEF72DFC00210120FEF729FC10BD63
:1054E000F8B5FFF73DFF0020FEF748FB0020FEF770
:1054F00035FB0320FEF728FBFFF74AFFFFF75CFFB1
:10550000FFF7CCFFA14C01212000FFF717FE02217D
:105510002000FFF713FE04212000FFF70FFE0821F3
:105520002000FFF70BFE10212000FFF707FE2021CF
:105530002000FFF703FE40212000FFF7FFFD802140
:105540002000FFF7FBFD802149002000FFF7F6FD5A
:10555000802189002000FFF7F1FD8021C900200093
:10556000FFF7ECFD80273F0139002000FFF7E6FD43
:105570008026760131002000FFF7E0FD8025AD0197
:1055800029002000FFF7DAFD8021C9012000FFF784
:10559000D5FD802109022000FFF7D0FD7C4C0121C0
:1055A0002000FFF7CBFD02212000FFF7C7FD0421FB
:1055B0002000FFF7C3FD08212000FFF7BFFD1021E9
:1055C0002000FFF7BBFD20212000FFF7B7FD4021A1
:1055D0002000FFF7B3FD80212000FFF7AFFD802101
:1055E00049002000FFF7AAFD802189002000FFF775
:1055F000A5FD8021C9002000FFF7A0FD3900200093
:10560000FFF79CFD31002000FFF798FD29002000E6
:10561000FFF794FD8021C9012000FFF78FFD802155
:1056200009022000FFF78AFD5A4C04212000FFF7F1
:1056300085FD08212000FFF781FD10212000FFF7E4
:105640007DFD20212000FFF779FD40212000FFF79C
:1056500075FD80212000FFF771FD802149002000A9
:10566000FFF76CFD802189002000FFF767FD802196
:10567000C9002000FFF762FD39002000FFF75EFD42
:1056800031002000FFF75AFD29002000FFF756FDEA
:105690008021C9012000FFF751FD8021090220006F
:1056A000FFF74CFD3C4C01212000FFF747FD022194
:1056B0002000FFF743FD04212000FFF73FFD0821F4
:1056C0002000FFF73BFD10212000FFF737FD2021D0
:1056D0002000FFF733FD40212000FFF72FFD802140
:1056E0002000FFF72BFD2D4C04212000FFF726FDA5
:1056F00008212000FFF722FD10212000FFF71EFDEA
:10570000274C08212000FFF719FD10212000FFF78A
:1057100015FD20212000FFF711FD40212000FFF79B
:105720000DFD39002000FFF709FD31002000FFF7D3
:1057300005FD29002000FFF701FD8021C90120009F
:10574000FFF7FCFC802109022000FFF7F7FC154C55
:1057500004212000FFF7F2FC08212000FFF7EEFCF7
:1057600040212000FFF7EAFC80212000FFF7E6FC43
:105770000022802149002000FFF796FC00228021B2
:1057800089002000FFF790FCF8BDC046000C0040E7
:10579000200C0040400C0040600C0040800C004099
:1057A000A00C0040C00C004010B501215148FEF78C
:1057B0007FFC01215048FEF77BFC01214F48FEF79A
:1057C00077FC01214E48FEF773FC01214D48FEF79E
:1057D0006FFC01214C48FEF76BFC01214B48FEF7A2
:1057E00067FC01214A48FEF763FC01214948FEF7A6
:1057F0005FFC01214848FEF75BFC01214748FEF7AA
:1058000057FC012180204004FEF752FC012144484E
:10581000FEF74EFC01214348FEF74AFC00214248B6
:10582000FEF746FC00214148FEF742FC01214048BA
:10583000FEF73EFC01213F48FEF73AFC01213E48BD
:10584000FEF736FC01213D48FEF732FC01218020A5
:105850008004FEF72DFC01213948FEF729FC0121C7
:105860003848FEF725FC01213748FEF721FC0121CD
:105870003648FEF71DFC01213548FEF719FC0121D1
:105880003448FEF715FC01213348FEF711FC0121D5
:105890003248FEF70DFC01213148FEF709FC0121D9
:1058A0003048FEF705FC01212F48FEF701FC0121DD
:1058B0002E48FEF7FDFB0121C0208004FEF7F8FB17
:1058C00001212B48FEF7F4FB01212A48FEF7F0FBEB
:1058D00001212948FEF7ECFB01212848FEF7E8FBEF
:1058E00001212748FEF7E4FB01218020C004FEF7D8
:1058F000DFFB10BD1F0000010A00000109000001CC
:105900000800000107000001060000010500000179
:105910000400000103000001020000010100000179
:105920000800000207000002060000020500000255
:105930000400000203000002020000020100000255
:105940001800000311000003100000030E00000304
:105950000D0000030C0000030B0000030A0000030D
:105960000900000308000003020000030100000317
:105970000500000404000004030000040200000409
:105980000100000400B585B0F423FF330093002329
:10599000029301936A4613736846FEF7CFFB00201B
:1059A000FEF7D6FA05B000BD30B589B006A80024D0
:1059B000069401250571FEF7B1FB01A8019444602E
:1059C0008460C46005744474FEF7C8FB09B030BD40
:1059D00010B5012805D1FEF77DFC0120FEF78AFCF9
:1059E00005E00020FEF776FC0020FEF783FC002097
:1059F000FEF7F8FB0020FEF709FC0020FEF71AFC7A
:105A00000020FEF72BFC0020FEF73CFC0020FEF7F8
:105A10004DFC10BD10B50020FEF788F8FFF7B2FF6F
:105A2000FFF7C2FFFFF7C0FE0020FEF7ABFA012030
:105A3000FEF762F80120FEF769F80020FFF7C8FFC3
:105A400010BDC04610B501210548FEF731FBFEF739
:105A500097F90220FEF78AF90020FEF777F910BDCA
:105A60000500000110B5054C10212000FEF742F999
:105A7000002210212000FFF7DFFA10BD000C0040CB
:105A800070B50600002412E00C4D10212800FEF72E
:105A900033F900216420FFF7A9FA10212800FEF74E
:105AA00029F900216420FFF7A1FA0134E4B2B442DD
:105AB000EAD310210148FEF71DF970BD000C00402B
:105AC00010B572B6FFF7BEFFFEF75AF9FFF764FA9A
:105AD00000210A20FFF78AFAFFF79CFF0120FEF75A
